:020000040800F2
:10C0000000EC002005C002086D57010871570108B7
:10C0100075570108795701087D5701080000000095
:10C02000000000000000000000000000855701082B
:10C030008157010800000000895701088D57010849
:10C040009157010895570108995701089D57010814
:10C05000A1570108A5570108A9570108AD570108C4
:10C06000B1570108B5570108B9570108BD57010874
:10C07000C1570108C5570108C9570108CD57010824
:10C08000D1570108D5570108D9570108DD570108D4
:10C09000E1570108E5570108E9570108ED57010884
:10C0A000F1570108F5570108F9570108FD57010834
:10C0B000015801086D5C0108595E01086D600108B6
:10C0C0007160010875600108796001087D600108F0
:10C0D0008160010885600108896001088D600108A0
:10C0E0009160010895600108996001089D60010850
:10C0F000A1600108A5600108A9600108AD60010800
:10C10000B1600108B5600108B9600108BD600108AF
:10C11000C1600108C5600108C9600108CD6001085F
:10C12000D1600108D5600108D9600108DD6001080F
:10C130002DE9F04F0E4D99B012AC0FCD0FC495E81C
:10C14000030084E803004FF000600A4907F06EF82E
:10C15000F8F78CF80B20F8F77DF878B9064A034613
:10C1600000921E2140F2FF729820F8F76DF8FEE76A
:10C170008471010800C0000808720108BB4A00234E
:10C18000009232214FF6FF722020F8F75DF8B84A8E
:10C1900082210023009260204FF6FF72F8F754F8D6
:10C1A0000720F8F757F8B34B18600820F8F752F853
:10C1B000B14B18600920F8F74DF8B04B18600A2011
:10C1C000F8F748F8AE4B18600D20F8F743F8042252
:10C1D000AC4944F0C5F9C043AB4BC00F18703FF0F9
:10C1E00085F923F0E3FB26F01FFF0223A74A002076
:10C1F00013703DF03DF80346002845F0B487A44A8B
:10C200001E21009258204FF4FC62F8F71DF89F4A57
:10C2100000271378DFF8D092042B84BF0223137019
:10C220004FF4FA729B4B4FF4FA601A809A4D89F8DA
:10C23000007007F025F901203DF034FF25F0FCFFE8
:10C240004FF4E06006F04AFF2A46944B012642F87C
:10C25000143F1046089206F04BFF4FF080434720F2
:10C2600040F2E7318522188599859E811A8027F052
:10C27000DFFC26F0B9F84FF0040C10220221884CA4
:10C280003846B4F8F031A4F8F472864FDFF85CA2B7
:10C290003B70854B854FA4F808C38AF80010A4F8BA
:10C2A000E0623E701A61F7F7D5FF45F2317380B254
:10C2B00098427F4B4FF001014FF0250008BF1E70E0
:10C2C0000993F7F7C3FF01212520F7F7BFFF0020EF
:10C2D000F7F7C0FF40F2011380B2984206F02085C4
:10C2E000744B0A93002110226F4B04915A61099BF1
:10C2F00088461B7826468B4218BF0E226E4BDFF80D
:10C30000F0B16E4F0791069103911A70B6F9A03102
:10C31000042B1CBF6A4B83F8008028F0D1FF20B1AA
:10C32000684B1878003018BF01205E4AB6F9F0312A
:10C33000127865499342087000F04B83062B01F098
:10C340009B85052B00F34583564A1278052A00F297
:10C350001483B6F94022042A08D0524A1370062BDF
:10C3600004D16423A6F84C30A6F89C30B6F900310D
:10C370000B2B40F35A83012385F828303FF086F9D0
:10C38000524B18700520F7F765FF10B9504B1B7B17
:10C3900033B9504A13889BB213B14FF4167313800C
:10C3A0004C4B198889B2002900F04F839AF800306D
:10C3B00083B1B6F9F03113B928F082FF50B128F0FB
:10C3C0007FFF10B1444B1B7823B9288B3FF0EEF967
:10C3D000A6F818022B7BDB070DD5B6F9F031062B3A
:10C3E00001F0DE81D6230C220B21002023F08AFBF2
:10C3F00002232E4A137043F0A9FB95F825308BB326
:10C40000B6F9F0319AB2012A2CD9052B2AD0022094
:10C41000F7F720FF002842F0B482B6F904322F4922
:10C42000049A01EB430301321B8B92B293420492B4
:10C4300060D2B6F940322A4A042B117803F0848284
:10C44000B6F94C20B6F99C3021B1B6F9541208293E
:10C4500004F0058223490A808B8001203FF01EFAF8
:10C4600023F0D8FD0023049344E000BF14720108B8
:10C470004472010854BE00207875002050BE002090
:10C480004CBE00206C72010858BE002064200020C1
:10C4900074720108FE500020F85100201E000001B7
:10C4A0008C210020BA540020001001408675002025
:10C4B00076750020006100208E260020FC500020B0
:10C4C0002A540020006C0020E1600020E060002081
:10C4D0009020002004510020F260002084710108A7
:10C4E00029540020202000201B5100205E2600201F
:10C4F0003C520020B14B1B782BB1B14B1C88A4B22D
:10C50000002C00F064862B78D3B99AF80030BBB1C8
:10C5100096F85A3396F8BA1223F0020396F8CE2210
:10C5200086F85A3396F86E3321F0020122F00202A7
:10C5300023F0020386F8BA1286F8CE2286F86E330C
:10C54000A04A03991388994241D012889E4992B219
:10C550000B8803929D4A06201380A1F80080F7F70C
:10C5600079FE9B4B1B882833984207D80620F7F7A3
:10C5700071FE974B1B88283B984214D23EF07CFA00
:10C580000620F7F767FE924BB6F94C20188096F814
:10C59000381000203EF006FAB6F99C2096F8881074
:10C5A00001203EF0FFF926F085FD2B78012B01F0EC
:10C5B000A584884A1278134309D1874B1B78002B36
:10C5C00001F01187854B1B78012B01F00C8728F0B7
:10C5D00077FE20B1824B1B78032B40F2FE85814908
:10C5E00095F831200B781C0703D5012A0B7800F051
:10C5F00051827C490B780B7803F00803134300F059
:10C6000050822C78002C40F0BC822AF0D5F99BF89F
:10C610000030092B0DD0744B1B88042B00F2398598
:10C62000714B1B889BB223B16F4B1B88042B41F2CB
:10C630005C809AF80030002B40F0B7832B7823B948
:10C640006A4B1B78002B40F0BB85B6F90432674A71
:10C650000A2B82F8008009DD654B1B78032B00F064
:10C66000AA85012B02D10323614A1370B6F9503118
:10C67000012B00F0F68128F023FE50B15D4B1B78B2
:10C680003BB95D4B1B88B3F5BE7F02D802235B4AE2
:10C69000137095F82500A8B1B6F9F03113B9584ACE
:10C6A00012787AB19BF80020072A00F06A85B6F963
:10C6B0004032002B00F0E182042B00F0D982012BE4
:10C6C00000F02E8326F044F99AF80030012B03D1B4
:10C6D0002B7B43F008032B7395F83430002B40F08C
:10C6E000CF8199F80030002B3FF410AE454B1C88E9
:10C6F000A4B2002C00F07E84434B00241A4605931C
:10C700004FF4167316463F490B80B2F91030002BD8
:10C7100000F067810134042C02F15002F5D199F840
:10C720000030DBB2012B00F02B8499F80030062B8F
:10C7300001F0438199F80030022B00F0538599F8FD
:10C740000030032B00F0758599F80030092B00F0BC
:10C750007B8799F80030052B01F0A88199F800300B
:10C760000A2B01F0A38299F80030072B01F0858590
:10C7700099F80030042B01F0948599F80030082BCB
:10C7800001F03C87214BB6F900211B7899F8001085
:10C79000092909D099F800100A2905D01C4981F807
:10C7A00000801C4981F800800B2A02D019221A4906
:10C7B0000A80042B32D125F00DF92FE0807500207E
:10C7C000125100200251002008360020425400205F
:10C7D0004A7E0020BB54002026540020877500208C
:10C7E000043600200051002008510020C6540020CB
:10C7F000FA350020F2600020046D0020F5260020AC
:10C800002E540020045100208C2100209020002074
:10C8100060BE00202F54002048200020B6F91030C0
:10C82000002B40F0DF81B6F96020B6F8B03013433A
:10C830001BB223B9B6F90011092902F3AE82B6F989
:10C840004032042B01F07C869BF80030052B00F071
:10C8500000829AF80020022A45D0062B00F080853D
:10C860002A7B072B42F004022A7300F0E185032B98
:10C8700001F2578699F80020092A00F01E8499F8E1
:10C8800000200A2A00F0198499F80020052A00F0F7
:10C8900014842A7B42F01002032B2A7340F20D8489
:10C8A0002A7B42F002022A73032B00F23E84B64A2E
:10C8B000D35C032B00F01284B6F9F031042B00F0A6
:10C8C0004984B6F9503133B94AF65523AF4A128834
:10C8D0009A4201F0818601238AF800309BF80030EB
:10C8E000052B00F09A83B6F9A021082A00F0A68350
:10C8F0002A7B42F008022A73052B00F0A7833EF042
:10C90000C5FE95F8363083421DD03EF0BFFE80B1A3
:10C910009BF80030092B09D003EB830306EB0313CC
:10C92000B3F93830022B01D03EF03CFEFF23984A89
:10C9300013703FF041FBB6F94032042B0CBF0020CE
:10C9400001203EF0ABFF3EF0A1FEB6F9103085F8B5
:10C950003600002BC8BF8F4A89F80080C8BF82F814
:10C960005030B6F96030002BC4BF8A4A82F851308B
:10C970003EF08CFE884B1870C8E48849884B089CB0
:10C980009A7C11F8010B42F002028C429A741882D0
:10C9900003F15003F4D1AB8B6A8BA6F89C30A6F858
:10C9A0004C2001203DF022FBAB7F002B01F0C28622
:10C9B0002A8C6B8C7B490A808B8095F8242095F813
:10C9C0002F3085F8252013B1012385F826301FF07C
:10C9D000F7FDB6F94032042BB6F9F0317FF4BDAC67
:10C9E000BDE4B5F90410A14208BFAB806E4B1946F7
:10C9F00031F9020BA04209D00B466C4999423FF431
:10CA000089AE194631F9020BA042F5D133F8020C78
:10CA100023F8020966489842EED033F8020C23F856
:10CA2000020963489842F1D1E6E7624B624A1B78FB
:10CA300085F82880A2F80080002B3FF49FAC5D4B66
:10CA400083F800803FF0D4FE98E40220F7F7FEFB65
:10CA500001211420F7F7FAFBB6F95031012B7FF4CE
:10CA60000AAE0320F7F7F6FB002800F0A2860222A8
:10CA700096F85231A6F85021134386F85231FAE560
:10CA80000123A6F8503140F0FBFAA6F8508185F852
:10CA9000348026E60B780B7885F8318018073FF54F
:10CAA000B0AD012295F8323085F83120022B00F02C
:10CAB000E387013385F83230404B83F8008028F05B
:10CAC00055FAB6F9A031042B00F0E187B6F9B4317C
:10CAD0003B4A3C49128D31F8133003FB0233C3EB60
:10CAE000431203EB8203384A136025F013F92B78C5
:10CAF000012B06D0354A1278002A41F05E84022BC1
:10CB000009D02C4B1B78002B3FF47BAD304B1B78AE
:10CB1000012B02F058810220F7F79CFB38B9B6F9D7
:10CB2000F031022B01F03285042B01F02F85B6F98C
:10CB300004320A2B01F31482082B04DD254B1B78E9
:10CB4000012B01F00D820123234A02201370F7F715
:10CB500081FB50B9174B1B783BB11D4B1B7823B998
:10CB60001E4B1B78002B43F098851D4B83F80080EB
:10CB70002C78022C7FF446AD064B1B78042B02F078
:10CB8000028226F0CDF940E518540020243600201A
:10CB90008D26002090200020E06000200852002018
:10CBA0008C21002020200020FE5100200452002073
:10CBB000FC51002026540020B4750020F4260020EB
:10CBC000001400401C860108E8500020BB540020DF
:10CBD00087750020F72600203B7E002094750020FA
:10CBE0003C7E0020B6F94032042B7FF42DAE0222A9
:10CBF00096F8F231A6F8F0211343B6F9602086F8D2
:10CC0000F23112B90123A6F86030059BA6F8B08076
:10CC1000A6F800819A7C503342F0020203F83E2CC1
:10CC2000BE4A9342F6D1022396F83A1096F88A202B
:10CC300019431A4386F8423286F8563286F86A3229
:10CC40009BF8003086F83A10052B86F88A207FF48E
:10CC500000AEB34A5279032A01F0AF849AF800205B
:10CC6000022A00F0DA812A7B42F004022A7310E6DD
:10CC7000AC4AB2F90020002A4CD1AB49B6F93820B1
:10CC8000B1F900C0A949B6F94C4011F902E0A84930
:10CC900031F812200EEB0C01091B02FB01F1A54A31
:10CCA0000029B2F90020B8BF01F2FF31A2EB0C025B
:10CCB00000FB02F2002AB8BF0332891204EBA20281
:10CCC00006980A4412B2411D8A4208DC411F8A427A
:10CCD00005DB9949087899490978014312D09849A8
:10CCE000042B0A800CBF002001203EF0D7FD23F06A
:10CCF00091F9934B904AB3F9003082F80080069383
:10CD0000B6F94032012B09D0042B7FF4DBAC854B04
:10CD1000B3F90020012A7FF4D5AC042395F825004F
:10CD2000884AB6F98840B2F900C0874AB6F99C1023
:10CD300012F904E0854A32F814400EEB0C02521A44
:10CD400004FB02F2824C002AB4F90040B8BF02F2A0
:10CD5000FF3201EBA222A4EB0C0100FB01F0002842
:10CD6000B8BF033002EBA002079812B2411D8A42FD
:10CD700009DC411F8A4206DB6F4908786F49097850
:10CD800001433FF49FAC6E49042B8A800CBF002006
:10CD900001203EF083FD23F03DF9694BB3F90430E7
:10CDA0000793654B83F800808CE46A4A127822B1BD
:10CDB000022B02D1674B01321A703FF0F9FC2B7B3A
:10CDC000D90703D52B78002B41F0B084002495F8C7
:10CDD0002530A34200F04B810134042CF7D1287B8D
:10CDE000820740F1E585430740F1DD85040740F106
:10CDF000D58510F0100006D1B6F94032042B18BFCB
:10CE000001203EF04BFD23F005F9002025F0D0F97C
:10CE10002B7B98060BD55048B6F9041202780A29E4
:10CE200042F00102027002DC02224C490A705906EB
:10CE30000BD54949B6F904220B780A2A43F00203BC
:10CE40000B7002DC0223454A1370454A454B1178AA
:10CE50001C78059183F8008082F8008022F028FF7A
:10CE6000002800F076853F4B1B789C4200F00D8532
:10CE7000B6F94032042B0CBF002001203EF00EFD1D
:10CE80009BF80030032B00F2ED8203EB830306EBEB
:10CE9000031393F84E2042F0020283F84E20324BE7
:10CEA0001B882A2B40F20E832B78002B40F0108336
:10CEB0009BF80020082A41F00184194A127A022ABC
:10CEC00001D1174A1372294B1B78022B02D12B8BED
:10CED000274A13709AF8003013B1013B8AF80030EA
:10CEE0000123244A85F80C8013703EF0CFFB9BF899
:10CEF0000030214A092B107000F0EC841F4B1B7886
:10CF0000002B3FF49BABB6F95041002C7FF496AB5D
:10CF10003DF042F8194B1C70FFF790BBCC2200206B
:10CF200018540020822600201C7600206C5A002015
:10CF3000785A0020187600207E7500202E5400209C
:10CF4000202000201E7600208C5A0020985A0020B5
:10CF50001A76002086750020387E0020397E002059
:10CF6000DB6C0020DA6C002008510020F260002009
:10CF7000E23D00200F360020E0600020D43D00207C
:10CF800040F2DC5CB548B64902780B70012AA7F87C
:10CF900000C040F2BC82B34B80F80080A3F8008050
:10CFA0003BF00EF9B6F9F03173B195F82630002B4D
:10CFB00001F06787012B0ABF95F82700288B28838B
:10CFC0003EF0F4FBA6F81802A74BA8491A78A84B24
:10CFD0000A701B78002B41F0CF843FF0D7FA3EF067
:10CFE000EBFF00203DF05EF8A24BB6F900211B7864
:10CFF000FFF7CCBB01203DF055F889F800401FF049
:10D00000DFFA0323964A137028F05AF900283FF4F8
:10D0100073AB25F085F9FFF76FBB99F80030092B4A
:10D0200000F0698299F800300A2B00F06482B6F9AA
:10D03000A0219BF80030082A7FF45AAC8E4A12785F
:10D04000002A3FF455AC052B7FF459AC8B4B5B7930
:10D05000002B7FF454AC99F80030092B04D099F8D8
:10D0600000300A2B7FF44BAC3EF0AEFF47E4B6F83D
:10D07000402212A904EB440301EB430302F5A06232
:10D08000009392B2E3B2D82140F26D101FF046F83F
:10D09000A2E600236A7B7748194600EB82021069FA
:10D0A00040F2054200905F201FF038F89BF80030F6
:10D0B000092B7FF4B5AAFFF7BCBA704AD25C022AEA
:10D0C0003FF6EEAB99F80020092A3FF4F5AB99F84A
:10D0D00000200A2A7FF4E4ABFFF7EEBB99F800309A
:10D0E000092B04D099F800300A2B7FF4E5ABB6F990
:10D0F0004C2096F8381000203DF054FCB6F99C20E6
:10D1000096F8881001203DF04DFCB6F9F031062B61
:10D1100009D0B6F800310A3B012B04D9584B1B78D3
:10D12000002B42F0B1879BF80030062B7FF4C4AB94
:10D13000524B9B79022B00F02781B6F9F031022B7C
:10D1400000F06181042B7FF4BCAB4C4A9279012A38
:10D1500000F05E8101203DF0AFFF0121494B1C78BA
:10D16000494B1970002C7FF4ACABB6F904320A2B92
:10D170003FF7A7AB0620F7F769F8444B1C80FFF791
:10D18000A0BB3E4AD279022A7FF491AA023B9BB20D
:10D19000022B41F27B820023194603EB830306EB4B
:10D1A000830393F84222354C42F00202E17183F886
:10D1B0004222FFF77CBA344B83F80080FFF756BA5F
:10D1C00022F0C0FC01238AF80030FFF73EBA22F0BB
:10D1D00021FF2F4B1C70FFF796B9012028F028FF84
:10D1E000FFF7FDB901239BF800201D49092A0B70A8
:10D1F00040F08282B6F90823042A40F07D821F495C
:10D20000B6F9E022497A002A41F06887032902F042
:10D21000E2871B4B1A70002025F088FA1D4B04464C
:10D2200083F800803AF0B8FC99F80030032B7FF4C3
:10D230008BAA40F2DC533B8005E00420F7F70AF8A4
:10D24000830501F197843B88B3F57A7FF5D87D207B
:10D250003DF05CF9012024F0ABFF22E02E540020C9
:10D260008675002016510020A6540020207600204C
:10D27000AA5400209020002081750020185400201E
:10D28000A4540020F2600020FA350020046D002034
:10D2900080750020E33D00200420F6F7DBFF8005C9
:10D2A00016D43B889BB2002B01F094853B88B3F5E4
:10D2B0007A7F01F28F8540F26A323B889A42EBD343
:10D2C000002024F075FF0420F6F7C4FF8005E8D5A0
:10D2D0009BF800209B4BB6F90001995C02EB82039E
:10D2E00001EB81041B0103EB840333449C7C0B287A
:10D2F00044F002049C7410DD934B1878934B1B7818
:10D3000003430AD0032A03F0B6820A2A05D121B9C1
:10D310008C4BDB78012B04F0818227F0E3FF00289F
:10D3200042F06884B6F9F031062B02F063849BF872
:10D330000030002B42F076840123AB7001220621DD
:10D3400096F806328BF8001043F0030386F8063295
:10D350007C4B9A717E4BB6F900211B78FFF716BA09
:10D36000784A9279002A40F02C8299F80020092A04
:10D370003FF4DEAE99F800200A2A7FF474AC714BBA
:10D380009B79022B7FF4D9AE99F80030092B04D099
:10D3900099F800300A2B7FF4D0AEB6F95031BBB902
:10D3A000B6F9F031022B02F06582042B02F06282A2
:10D3B000B6F90432072B0BDC288B3EF0F7F901237A
:10D3C000A6F81802A6F850313FF05AFEA6F8508190
:10D3D00027F076FF68B15F4B1B7853B95E49B6F909
:10D3E0001822098802F27B129142D8BF02235B4ABD
:10D3F00013709BF80020B6F9F031062A7FF45EAA7C
:10D40000022B7FF49FAE4F4A9279012A7FF459AAEA
:10D4100099F80020092A04D099F800200A2A7FF4FC
:10D420004DAA01234E4A13703FF0AAFDFFF744BAFC
:10D43000B6F94012032904DD4249C97901293FF6B2
:10D4400029AA99F8001009293FF42BAA99F800207D
:10D450000A2A3FF425AA99F80020052A7FF419AA80
:10D46000FFF71EBA072B40F00782364BDB79032B00
:10D470007FF415AD374A12788AB13A4A1278D2074A
:10D480000DD5394A127852B9B6F8F021511F012949
:10D4900005D9012A03D9B6F90422092A03DD294B4B
:10D4A00083F80780002303EB830306EB830393F8E1
:10D4B000422242F0020283F842222C4B1B882A2B84
:10D4C0003FF6F2AC1FF07CF82B78002B3FF4F0AC69
:10D4D00096F8BA1296F8CE2296F86E3341F0020111
:10D4E00042F0020243F0020386F8BA1286F8CE2216
:10D4F00086F86E33E7E4134B5B79012B7FF4A8AD1C
:10D50000022027F063FE9BF80030FFF7F5B9184AB8
:10D51000128892B20AB1174A13701923144A138061
:10D5200005E00420F6F796FE430400F160873B888F
:10D53000B3F57A7FF5D87D203CF0E8FF012024F098
:10D5400037FE1EE018540020265400209475002059
:10D5500090200020F2600020046D0020F5260020BD
:10D56000F4260020706D0020E060002008510020AB
:10D57000165100202E5400200420F6F76BFE4204C2
:10D5800016D43B889BB2002B01F0A3803B88B3F5F7
:10D590007A7F01F29E8040F26A323B889A42EBD356
:10D5A000002024F005FE0420F6F754FE4204E8D5DE
:10D5B0009BF80030B94AD25C03EB830302EB820292
:10D5C0001B0103EB820333449A7C42F002029A74FB
:10D5D00027F088FE002841F0DF86B6F9F031062BEF
:10D5E00001F0DA869BF80040002C01F0ED86012C5A
:10D5F00002F00581B6F91030B6F96020002B42F038
:10D60000E085002A02F0B084012302228BF800306A
:10D61000AA70022496F8621003EB8302214386F875
:10D62000621006EB021292F83A00B17C40F003005F
:10D6300082F83A00994A2143D454994BB174B6F90F
:10D6400000211B78FFF7A2B8B6F9F031002B40F0AB
:10D65000C78027F035FE002840F0C2809BF80030DC
:10D66000062B00F0CC80B6F900218E490B2A0978F0
:10D6700001DD032B23D0002901F06080062B00F090
:10D68000C880894A1278012A01F00484022A02D152
:10D69000012B01F25383012027F030FE002801F016
:10D6A0006D80B6F91C33002B41F35885013BA6F879
:10D6B0001C337B4BB6F900211B78FFF767B8774A1C
:10D6C000D278012A02F06684774A1278012ADDD1E5
:10D6D000764A13780BB1013B13703EF057FF704B45
:10D6E000B6F900211B78FFF751B81EF069FF704BA7
:10D6F000A3F80080FEF79DBF40F2DC533B8005E0BD
:10D700000420F6F7A7FDC10500F126873B88B3F595
:10D710007A7FF5D87D203CF0F9FE012024F048FD09
:10D7200004E00420F6F796FDC20516D43B889BB2B0
:10D73000002B01F05B813B88B3F57A7F01F25681C3
:10D7400040F26A323B889A42EBD3002024F030FD4D
:10D750000420F6F77FFDC205E8D5B6F9A031062B07
:10D7600042F00A80534B40F205425A210093772041
:10D7700000231EF0D3FC4FF4617005F081FE4E4B88
:10D7800000210220A3F80080F6F760FD012114209B
:10D79000F6F75CFD424BB6F900211B78FEF7F6BFA9
:10D7A000D723D6224FF4C871002022F0ABF9FEF740
:10D7B00019BE0220F6F74EFD00283FF458A9FEF7E7
:10D7C0005ABF012A7FF44FAA99F80020092A3FF492
:10D7D00060A899F800200A2A7FF445AAFFF759B8F3
:10D7E00027F06EFD002800F06587344B1A789BF80F
:10D7F0000030002A3FF437AF062B7FF434AF274BBD
:10D800009B79022B3FF47BA8264B1B78002B00F062
:10D810009887224B9B79012B3FF471A8002B40F095
:10D820009587099B1B7823B1254B1B78002B42F071
:10D83000BB841D4B1A78012A3FF44AAF022A7FF4B9
:10D840002AAF164B9B79012B07D10A9B1B7823B17A
:10D850001C4B1B78002B7FF41EAF1B4C1B48B4F9EC
:10D8600000100F4B8142B6F900211B78FEF68EAFF7
:10D8700001392180FEF78ABF092B7FF410AB2B788A
:10D88000002B7FF425AEFFF71EBB114B059A1B78CA
:10D8900093427FF4EDAAFFF7F3BA00BF18540020BB
:10D8A000902000202654002060BE00206A26002020
:10D8B00008510020B072010804510020F2600020DD
:10D8C0003154002001610020FC2600201AFCFFFFDB
:10D8D000DB6C0020904B5B7A032B7FF40FABB6F927
:10D8E0000833072B41F045844E23422149228B48BF
:10D8F000837095F8333080F8038001704270002BFC
:10D9000041F0488485483AF09DF9B6F91C338449C2
:10D9100003EB430203EB82028A5C2AB9002BC4BFEB
:10D9200003F1FF33A6F81C337D4B1B78002B01F06D
:10D930008C867C4B1B882BB1794B93F8B630002B2F
:10D9400002F0418300210222084620F00BFCFFF781
:10D95000D5BA22F0C5F900287FF485AA22F0DCF9B7
:10D9600000287FF480AAB6F9F031062B3FF47BAA99
:10D97000B6F91030022B02F00F81042B02F00C815B
:10D98000694B1B78B6F96020022A02D0042A7FF482
:10D990006CAA012265490A70FFF767BA3EF014FBD2
:10D9A000287BFFF726BA3EF007FB287BFFF71EBA5D
:10D9B0003EF0ECFD287BFFF716BA40F6B8333B800B
:10D9C00005E00420F6F746FC830400F19D8740F64D
:10D9D000C4123B889A42F4D37D203CF097FD01208D
:10D9E00024F0E6FB04E00420F6F734FC800417D4AE
:10D9F0003B889BB2002B01F0738140F6C4123B8838
:10DA00009A42C1F06D8140F646123B889A42EAD3B1
:10DA1000002024F0CDFB0420F6F71CFC8004E7D5A1
:10DA2000B6F84022424B023A012A1B7842F2238088
:10DA30009BF80020384895F82510805C02EB8202A4
:10DA400000EB8000120102EB80023244907C40F037
:10DA50000200907409B185F825800221072096F80C
:10DA60006A228BF800000A4386F86A222A4AD1719A
:10DA7000B6F90021FEF78ABE2E4B85F832801A7067
:10DA800027F074FAB6F9A031042B7FF41FA8B6F979
:10DA9000B421294901EB82035B8831F8222002FB83
:10DAA0000333264A5B101360FFF71FB801229BF86F
:10DAB00000302349092B0A7040F0EA870023214AED
:10DAC00019460092E62040F20A521EF027FB9BF80E
:10DAD000003003EB830206EB0212B2F91020194664
:10DAE000002A40F0B4800C4AD35C032B03F08C80F6
:10DAF0008B005A1806EB0212B2F93820072A00F2FE
:10DB0000CA80DFE812F06A015001480132012201A7
:10DB1000CA00CA00720100BF185400206020002013
:10DB2000083D0020CC3D0020DA6C0020DB6C00209A
:10DB300090200020F426002090260020E8500020AD
:10DB40008675002060700108C04A1278002A42F0F1
:10DB5000558203EB830306EB031393F824003AF09A
:10DB6000B5F99BF80030BA4A0446D25C032A02F0A9
:10DB7000378203EB830306EB03139A8C01329A84FA
:10DB8000B44AB6F90432126803EB830302EB830351
:10DB9000DB89B14A138027F093FB9BF8003010B16A
:10DBA000AE4A82F8008003EB830206EB0212B2F960
:10DBB0003820002A5DD1A5490978002941F0E38485
:10DBC00003EB830306EB031393F8240039F02AFCDC
:10DBD0009BF800300246092B044601F0178403EB42
:10DBE000830306EB0313998C0131998489F8008033
:10DBF000002A41F03984104639F0CEFF99F8003000
:10DC0000002BFBD000203CF04DFA962005F038FCAC
:10DC100024F0EAFB1EF0D4FC99F80030052B01F04B
:10DC2000CC8699F80030042B43F08F849BF80030A9
:10DC3000092B00F0DE8003EB830206EB0212B2F93F
:10DC400024100129C6BF02399184A2F82480092B2F
:10DC500000F0DE8003EB830106EB0111B1F93820FF
:10DC6000012A00F0E4800024022A3FF46DAF002A6C
:10DC7000A1D0042A01F00784052A04F04F81062A66
:10DC800004F07A8022F00401032906D07049CB5CAD
:10DC9000032B04F04680E4B200E0C824204639F0AB
:10DCA0007BFF99F800300A2B7EF45DADB6F9F031B8
:10DCB000002B40F0F38327F003FB002840F0EE83B5
:10DCC0009BF80030062B00F0F883B6F900215F497D
:10DCD0000B2A097802DD032B00F06481002901F092
:10DCE0005580062B00F0F3835D4B1B78012B00F071
:10DCF0008481022B15D19BF80030012B11D9062B02
:10DD000041F0B981524B9B79012B41F0B4810A9BC0
:10DD10001B78002B01F0AF81524B1B78002B01F0D8
:10DD2000AA81012027F0EAFA002800F08381B6F9E1
:10DD30001C330D2B01F372840133A6F81C334A4BBC
:10DD4000B6F900211B78FEF721BD414B5B5C032B2C
:10DD500004F02585454B83F80080002024F0E6FC84
:10DD6000434B044683F8008098E70B4406EB03130B
:10DD700093F824003AF018FE9BF80030344A044629
:10DD8000D25C032A8AD003EB830306EB03139A8C3D
:10DD900001329A8482E70B4406EB031393F82400C4
:10DDA0003AF0A2FCE8E70B4406EB031393F82400D7
:10DDB00039F0D6FC9BF80030254A0446D25C032A91
:10DDC00006D003EB830306EB03139A8C01329A848B
:10DDD0004FF4617005F054FB60E70B4406EB03134E
:10DDE00093F824003AF04EFBC6E739F02FFC0446C6
:10DDF00054E7174A527A032A7FF41DAFB6F91C3351
:10DE0000002B03F369821B4A13880BB1013B13807B
:10DE10000F4B5B7A032B02F02D87092303EB830161
:10DE200006EB0111B1F93820012A7FF41CAF91F8FB
:10DE3000240039F079FA9BF80030044603EB8302A2
:10DE400006EB0212B2F938200EE700BF265400207C
:10DE5000185400207875002080260020716D002065
:10DE600060BE00200161002090200020A45400200A
:10DE7000E33D0020CC3D002001203CF0B7F83D4BB5
:10DE80001B78052B05D8B6F84C20B6F89C306A8371
:10DE9000AB8387226423384900200A703749328ACD
:10DEA0000B70B6F860302A746B74B6F8B020B6F810
:10DEB0000031AA74EB7424F09FF8012024F09CF840
:10DEC0002B78AB77002B00F033870023022195F8E5
:10DED00025202B4885F824202A4A0793069385F8A5
:10DEE00025100388818812782B8485F82680B6F95E
:10DEF000F031698485F82F20FEF723BA224A127880
:10DF0000002A40F03987214B1A6001230024204A5F
:10DF10001370E0B2013427F081FA092CF9D1022004
:10DF2000F6F798F938B9B6F9F031022B00F0788796
:10DF3000042B00F07587B6F904320A2B00F318871A
:10DF4000082B04DD134B1B78012B00F011870123F4
:10DF5000114A1370114B83F800802B78FEF729BB10
:10DF60000F4B1B78002B40F020833FF009F8FEF7A1
:10DF7000FCBD00BFBA540020E6350020E735002084
:10DF800020200020F2600020BB54002050540020CC
:10DF9000F4260020F72600203B7E00203C7E002057
:10DFA00026540020C24BDB78012B7FF49DAE002964
:10DFB00042F00287BF4B1B78002B3FF495AEB6F9B9
:10DFC0003033FE2B3FF790AE01339BB21AB2FC2ADE
:10DFD000A6F830233FF788AEB74A12782AB195F8F1
:10DFE0002620002A14BF012202221344A6F830334F
:10DFF000B24B1B78012B7FF47CAE9BF80030012BD9
:10E000007FF68FAE062B40F07D82A94B9A79012ACC
:10E0100040F078820A9B1B78002B00F07382A84B9B
:10E020001B78002B00F06E82012027F067F9002892
:10E030007FF47DAE27F062F9002841F0A6849BF8BA
:10E040000030062B01F0E686B6F9F021062A01F031
:10E050003684012B42F2D286052B41F03F84944B4B
:10E060005879012802F0888621F056FE38B19BF8D5
:10E07000002022B98E4B1B78012B03F0858121F003
:10E0800017FE9BF80010002801F0E084002941F001
:10E09000DD84874B1B78012B03F0F8813246894BD6
:10E0A00000241E4613468C4202F078820134042C70
:10E0B00006F15006F7D107291E4603F03282A1F17E
:10E0C0000B03012B43F2BA84062903F00E850A29BB
:10E0D00043F0F284764B9C7A012C44F21383744B08
:10E0E0008C005A5C631802EB82001B0103EB800377
:10E0F0003344B3F90800B3F91030023883420B926D
:10E1000013DA0020CDE90C2324F0F8FB0B9B04EB81
:10E11000010C03EB830E4FEA0C1C0D9B0CEB8E0CD9
:10E1200003440C9A06EB0C000382002943F0B883E9
:10E130003AB9B6F91030002B04F00B83042B03F02E
:10E14000AA83B6F9F031042B03F0B783584B621859
:10E150005B5C12014FEA830E0EEB030002EB8002C0
:10E160003244B2F910C0B2F90820184662450B914A
:10E1700003F3F4820C442401734404EB830333441B
:10E180009B7ADC0609D501EB81031B0100EB8000C3
:10E1900003EB80033344A3F81080012903F2EB82E0
:10E1A000434B5B5C23B9B6F9F031062B04F02182B6
:10E1B0009BF80030072B43F05F853D4BDA796AB955
:10E1C000B6F94012042904F06885002904F03A8564
:10E1D00096F8063243F0020386F806323A4B9BF873
:10E1E00000101B78012B43F2DD83062919D1304B37
:10E1F0009B796BBBB6F9F031002B43F0C48395F8E3
:10E200002F30288B002B03F0BA8385F8270096F86F
:10E2100052319BF8001043F00203A6F8508186F8B3
:10E220005231052903F06881092913D1B6F9E0229A
:10E23000B6F9083322B95A1F92B2012A44F28B80F0
:10E24000042B03F042851A4B5B7A022B04F07F808B
:10E250009BF800108C000022631806EB0313997CD6
:10E26000013241F00201042A997403F11403F6D13A
:10E2700099F80030072B7EF47BAA9BF800100C293C
:10E2800040F20D862B78012B00F0EB87022B01F07A
:10E290003D820A238BF8003099F80030042B7EF47D
:10E2A0006CAA012240F2DC5308493B800A7015E059
:10E2B0001854002094750020E450002060BE002017
:10E2C000016100208C210020F26000208675002072
:10E2D0000420F5F7BFFF420600F1E2873B88B3F563
:10E2E0007A7FF5D87D203CF011F9012023F060FF02
:10E2F00040F26A3404E00420F5F7ACFF430614D47E
:10E300003B889BB2002B01F0AD813B88B3F57A7F4F
:10E3100001F2A8813B889C42EDD3002023F048FF06
:10E320000420F5F797FF4306EAD5002026F0E6FF24
:10E33000002843F073819BF80020BE4B092A02F0AD
:10E340003287052A42F0A2875B79012B0BD1BA4BA9
:10E350001B78012B07D1B94B1B78032B04F0C98123
:10E36000042B04F0BD81B34B29785B7903EB830365
:10E3700006EB830393F8A22142F0020283F8A22164
:10E38000002902F0988726F0ADFF002843F0DB85D6
:10E39000B6F9F031062B03F0D685A94B9BF8002087
:10E3A0001B7885F83520042B0CBF0D220E228BF82C
:10E3B0000020B6F90021FEF7E9B90123A14C0420A1
:10E3C000237027F02BF82B7884F80080022B3EF482
:10E3D000A2AB012B3EF495AB9B4B1B78002B7EF43C
:10E3E0009AABFEF78EBB3EF0CBFDFEF7F0B896F889
:10E3F0005231B6F9502143F0020386F8523122B966
:10E40000924B1B78002B00F09E86914BA6F8508112
:10E4100083F8008026F054FF002840F0BC852B7B59
:10E42000B6F9F02143F06003022A2B7340F0808399
:10E430000123884A137026F043FF002801F07385FA
:10E44000854B1B78590701F16685844B1B78002B9F
:10E4500041F05D85B6F90432814A0A2BDCBF814B5D
:10E46000A3F80080012313703EF08AFDB6F9042260
:10E47000B6F9F031022A00F30085002B40F0DB846E
:10E48000794BB6F9002119786D4B1B7800293EF4C1
:10E490007DA9022175480170FEF778B926F010FFBA
:10E4A000002800F04184724B1A789BF80030002A53
:10E4B0003FF40BAC062B7FF408AC5E4B9B79022B30
:10E4C0003EF41DAA684B1B78002B00F06284594B68
:10E4D0009A79012A3EF413AA3AB9099B1B7823B111
:10E4E000644B1B78002B42F0D783634B1B78002BC7
:10E4F00001F08D80012A02F05D81604B1B78012BB9
:10E500007FF4F7AB5E4B1B78352B02D85C4A0133A6
:10E5100013703EF03BF84A4BB6F900211B78FEF72A
:10E5200035B90A2B7EF4B5A9B6F94022032A3EF785
:10E53000B0A999F80020092A7EF488AFFEF7B0B997
:10E540000220012196F8F231A6F8F001034386F883
:10E55000F2313182FEF755BB434B1978002940F068
:10E56000EC842C78022C00F0F486012C01F032812E
:10E5700024B926F0B7FE002841F0088723F01CFCE0
:10E580002F4BB6F900211B78FEF700B9364B1B78EC
:10E59000002B00F078823B4B1B78002B00F073823D
:10E5A000B6F904320A2B7EF7C7AA374B1878002831
:10E5B0007FF4DBAC26F032FFD7E43CF029FE2B7B66
:10E5C0009AF8002043F00803022A2B733EF486A930
:10E5D0009BF80030FEF741B939F0F2FDB6F81802A9
:10E5E0003DF09AF828833DF0E7FC26F069FE00280C
:10E5F00000F0D9843DF0CAFFFEF76DB99BF800101A
:10E600000C2940F2D58428780D4B01281B78B6F9E7
:10E61000002100F0DD8702287EF4B8A8042B02F068
:10E62000728010290CBF0E2101318BF80010FEF70B
:10E63000ADB800BF185400202B54002029540020EE
:10E640009020002041540020BB5400202E54002074
:10E65000342D0020716D0020706D0020E0600020DE
:10E66000F4260020046D002026540020957500201B
:10E67000F2600020315400202F54002060BE0020A2
:10E680006A2600209475002087750020B6F90432B0
:10E69000092B3EF780ADC84B1B7813F001033EF405
:10E6A0007BADC64B1B78002B7EF475AD032319465A
:10E6B000FEF773BD9BF80030FEF7D5BF0A2A7EF443
:10E6C00002ACBF4A927A022A04BFBD4A9372FEF797
:10E6D000FABB3C203BF01AFF3B889BB2002B7EF438
:10E6E00024A8B84B0B96CC241E46002356F8042FC2
:10E6F000A1B20092184640F20C420B3C1DF00EFDF8
:10E70000272CF2D14FF496700B9E04F0B9FE89F8D5
:10E71000008099F80030002BFBD0012318462B73A2
:10E720003BF064FC1DF04CFFFDF7FFBF23F044FB02
:10E73000FEF74CBB23F06AFAFEF73AB9062B7EF4DB
:10E74000A0AF9F4B9B79002B3FF46BA89E4A127899
:10E75000012A7FF473A8012B7EF4BAAF0A9B1B78C1
:10E76000002B3EF4B5AF994B1B78002B3EF4B0AFB5
:10E77000012026F0C3FD00287EF493AF26F0BEFDF5
:10E78000002840F0D686924B1A789BF80030002A79
:10E7900000F0B786062B00F0A386B6F9F021062A12
:10E7A00001F09881012B40F2B986052B01F04080E1
:10E7B0000B2B01F006810C2B41F09B81854B1B78C4
:10E7C000002B42F0C78121F0A7FA38B19BF8003046
:10E7D00023B97B4B1A78012A02F0A28321F068FA50
:10E7E0009BF80030002800F0DE84002B40F0DB8432
:10E7F000734A1278012A02F00C840024A34201F02B
:10E800001A830134042CF9D1072B02F03984A3F1C7
:10E810000B02012A42F21184062B02F0B686052B68
:10E8200002F0B887002B43F0B181654A12783AB9FB
:10E83000B6F91020002A03F05B85012A03F0A181BC
:10E84000B6F9F021042A03F0AF815D4A0B93D05C46
:10E850009A004FEA800ED1180EEB000C090101EB73
:10E860008C013144B1F91010844600290C9143F316
:10E87000E1815021142201FB03F102FB00120C99EB
:10E8800032440139012B118243F2A781072B43F057
:10E89000E9814B4BD97969B9B6F94022042A03F0D2
:10E8A0000887032A04F0108296F8063243F0020328
:10E8B00086F806329BF800309A00D01800014649CD
:10E8C00006EB000C0844614691F812C014314CF07C
:10E8D000020C01F802CC8842F6D13949C85C1344D5
:10E8E000190100EB800001EB80013144B1F91030D7
:10E8F000022B0B937DF72DAF002023F0FFFF0B9B26
:10E90000181A0882FDF725BF0122B6F840323349B4
:10E91000023B93420A7040F216839BF80010284B8A
:10E9200095F82520585C01EB810300EB80041B0166
:10E9300003EB840333449C7C44F002049C74002A5F
:10E9400000F06384531C264ADBB2127885F8253028
:10E9500022B1B6F95422082A01F07B86032B84BF2A
:10E96000012385F82530072900F060841D4BB6F996
:10E9700000211B78FDF70ABF2B7023F01DFAFEF76C
:10E980002CBBB6F94032042B7DF46CAD164BB3F9B9
:10E99000002095F83030002A41F02A8043F001032E
:10E9A00085F83030032B7DF4A5AD002385F8308049
:10E9B0000493FDF79FBD00BF706D0020E060002054
:10E9C00018540020E020002060BE002001610020DB
:10E9D0002F54002034540020DC21002086750020B4
:10E9E0002954002090200020822600203C203BF06B
:10E9F0008DFD3B889BB2002B7DF4A1AE0924042140
:10EA00009BF80020A6F8E032CF4802EB820306EB29
:10EA10000313805C85F82C209A7C85F82D0042F049
:10EA2000020293F826009A7493F83A2040F002000C
:10EA300042F0020283F83A2083F82600C34B8BF899
:10EA400000401A78C24BA6F808131B78A6F8F422E7
:10EA5000002B41F066830123BB4A537296F8E21201
:10EA600096F8F62296F80A3341F0020142F00202CB
:10EA700043F0020386F8E21286F8F62286F80A339B
:10EA80000324FDF75CBE0123B24A1370FEF770B891
:10EA900040F2DC533B8005E00420F5F7DBFBC204C9
:10EAA00000F157823B88B3F57A7FF5D87D203BF0A3
:10EAB0002DFD012023F07CFB04E00420F5F7CAFBC8
:10EAC000C30416D43B889BB2002B00F0BB833B8869
:10EAD000B3F57A7F00F2B68340F26A323B889A42FD
:10EAE000EBD3002023F064FB0420F5F7B3FBC30451
:10EAF000E8D52A78002A01F00F84974BA5F82C80DE
:10EB00001B78032B02F2B781022A02F0BE87B6F906
:10EB1000F02101339049DBB2062A0B7002F0AD8779
:10EB200023F0B2F98C4BB6F900211B78FDF72EBE0D
:10EB300001203CF0C1FAB6F9F031052B3FF47BAC73
:10EB4000022B3FF478AC854A1278500709D4844AE6
:10EB50001178B6F90422002941F06C83052A00F3EC
:10EB60008C81042B7FF467AC02203BF0E7FC20F0A3
:10EB700085FF85E49BF80010734B09295C5C01EB71
:10EB8000810304EB84024FEA031303EB8203334453
:10EB90009A7C42F002029A7400F0FD84052900F08C
:10EBA000E084022940F08F85674A937803B9917019
:10EBB0006A4B1A780B46D40740F1B282694A107842
:10EBC000B6F9F021002840F0AB8292B2501F012824
:10EBD00040F2A682012A40F2A382B6F90422092A51
:10EBE00000F39E822878002840F0B78701F0FD02EC
:10EBF000082A40F0B287544AD25C012A01F0B78754
:10EC00004FEA830C0CEB030002EB8204000100EBE3
:10EC100084003044847C022A44F00204847401F2AB
:10EC2000A4800132D2B248480529C2540BD1B6F9AA
:10EC3000A0414079042C02F0E482022803D103228F
:10EC400041484271C25C0CEB030002EB82040001FC
:10EC500000EB8400304490F90A00002803DA002217
:10EC6000394800F8038094000CEB030004EB020E1B
:10EC7000000100EB8E003044807AC00704D50022EA
:10EC80001446314800F803800CEB0300000104EB4C
:10EC9000020E00EB8E003044807A800741F14D80F7
:10ECA000092901F04D80052904D000221446264987
:10ECB00001F80380634422441B0103EB82033344C5
:10ECC0009A7C42F001029A74002026F017FB00287B
:10ECD00040F0AE84204BB6F900211B78FDF756BDFD
:10ECE0003C203BF013FC3B8899B200297DF422AD17
:10ECF00001229BF800001C4B90421A7041F22086C2
:10ED0000062801F0C88009283DF414AD174B1B7884
:10ED1000002B01F01F83154BB6F9002183F800800A
:10ED20000D4B1B78FDF740BD9BF80030FEF7CDBFC3
:10ED300023F042F823F0A8F8FFF7C7B8062B7EF4BB
:10ED40008CADFEF77EBD00BF18540020A5540020F6
:10ED5000A45400203C7E002090200020706D0020F4
:10ED6000F2600020E06000208675002060BE002078
:10ED70003EF006F9FFF7EEB8C74A042014461370B8
:10ED800026F04CFB84F80080FFF7BFB8062B7EF41A
:10ED9000ABAFC24B9A79FFF79FBB0D2905DCA1F100
:10EDA0000C039BB2012B02D80123A6F840320223A8
:10EDB000012086F8423286F8563286F86A323CF0F4
:10EDC0006DFDFDF741BDB64B1B78002B3DF419AC32
:10EDD000FDF7A1BE3C203BF099FB3B889BB2002B8A
:10EDE0007DF4B2AC0122AF49AF4809780270002926
:10EDF00001F03A819BF80020AA49092A0B7004D03F
:10EE0000062250236A73A94A1380A94B009340F24B
:10EE100005420023D82199201DF080F9FDF794BC0C
:10EE2000A44B1B78012B00F0CE840122A2492B7841
:10EE30000A70FDF7BEBB042B3FF496AE0B236B7339
:10EE40003CF024FCB6F90422002801F00B829B4917
:10EE5000B6F9183201EB4202B2F85420C3F196031E
:10EE600003FB02F3964A82FB0312DB17C3EB221368
:10EE70008E4A9BB21380B6F9F031042B7FF400ABBD
:10EE800072E6904B18883CF047FC95F826302883B2
:10EE9000FEF790B8012B7EF6FEABFEF719BC7F4B58
:10EEA00000205B5C01EB810103EB83020B0103EBB0
:10EEB000820333449A7C42F002029A7426F01EFACE
:10EEC00020B1814B1B78002B41F0A4867F4B9BF82F
:10EED00000201B784BB1774B1B7833B9B6F9001182
:10EEE0000B2902DD032A01F0EE85092A00F0A08635
:10EEF0000A2A01F01D812B78002B01F08C80002A5A
:10EF000041F0EA85134602EB820206EB021292F808
:10EF10004E1041F0020182F84E10604AD25C03EBC1
:10EF2000830302EB82021B0103EB820333449A7CCE
:10EF300042F003029A74FDF71BBC654BB6F9002141
:10EF40001B78FDF723BC624BB6F900211B78FDF757
:10EF50001DBC604B1B78002B40F0F5859BF8002012
:10EF6000072A05D14D4AD279022A04BF4E4A1370AE
:10EF700023F0A6FD002800F07086554BB6F900215D
:10EF80001B78FDF703BC012300202B7026F046FA06
:10EF90002C70FDF7F6BD23F0C3F9B6F90422B6F9DB
:10EFA000F031FFF767BA02203CF078FCFFF722BB94
:10EFB0003A4B00205A5C01EB810302EB82021B01F9
:10EFC00003EB820333449A7C42F002029A7426F0E7
:10EFD00095F9002840F0E6853C4B9BF800201B7813
:10EFE0004BB1344B1B7833B9B6F900110B2902DD54
:10EFF000032A02F01685092A01F05B80344B297838
:10F000001B78002941F03C810A2A01F070860C2A05
:10F0100002F097820132D2B2092A8BF8002002F066
:10F02000D781032A02F2A18091008C1806EB041408
:10F0300094F84EC04CF0020C84F84EC0002841F009
:10F040003F810A2A42F07C80144A927A022A02D135
:10F05000124A82F80A80114A927A02EB820206EB87
:10F06000820292F8321341F0030182F83213B6F9AA
:10F070000021FDF78BBB40F2E630174C144BB4F97E
:10F080000010B6F9002181421B783DF77FAB0131BA
:10F090002180FDF77BBB00BF4154002018540020A5
:10F0A00094750020207600208675002008510020ED
:10F0B00068720108877500203C7E00208471010879
:10F0C000B5814E1BA8540020405400202654002037
:10F0D0009020002060BE0020FC260020B6F91C33E2
:10F0E00003290B9301F09F8323F0CEFABD4B044616
:10F0F0001B78002B40F0168696F8E21296F8F6225E
:10F1000096F80A3341F0020142F0020243F0020392
:10F1100086F8E21286F8F62286F80A33FDF70FBB6E
:10F1200007297FF45FADB04AD279022A02D10322C7
:10F13000AD48C2712A78002A01F03F80AA4A4FEAFE
:10F14000830CD25C5EE540F0E7FC0123A6F8503169
:10F15000A64BB6F900211B78FDF718BBA44B1B8802
:10F16000002B40F08F83A14BB6F900211B78FDF7EF
:10F170000DBBA04A03EB830302EB43039E4859787F
:10F180009A78DB780170837095F833304270002BE9
:10F190003EF4B8AB0021032208461EF0E3FF85F8D9
:10F1A0003380FEF7AFBB052B00F09D860C2B7FF65E
:10F1B00024ABA3F10D0291484FEA420E0EEB02017F
:10F1C00000EB810191F80BC048794CF0020C81F8FA
:10F1D0000BC0002800F0778691F804C00138C0B257
:10F1E0000B90ACF102000C900B9848710C98012820
:10F1F00041F29D850B99012901F0BB800B990B29E8
:10F2000000F063869A00FFF768BB02247C4B85F808
:10F2100025401B782BB1B6F95432082B134601F068
:10F2200066860729CDE906337FF4A0AB022808BF24
:10F230006D4BB6F9002108BF83F807806B4B1B7834
:10F24000FDF7A4BA3C203BF061F93B889BB2002B50
:10F2500000F0D6839BF80020092A7DF47FAAFEF7F0
:10F260002DBC664AA1F10D0303EB430302EB8303BC
:10F27000DA7A0D2942F00202DA7200F0BB86013917
:10F28000C9B2A1F10D035D4A03EB430302EB830313
:10F29000DA7A8BF8001042F00102DA72FDF768BAF0
:10F2A0009BF80030032B04D14F4BDB78012B01F08E
:10F2B0004682002026F022F80446002840F03C86D2
:10F2C0009BF80020092A01F093810B2A01F0518656
:10F2D000052A01F05A8420F01FFD9BF80030B6F992
:10F2E000002110B1012B41F2B5870B2A01F0DC851A
:10F2F000092B01F09D87B6F9F021062A01F0F1856E
:10F3000095F82630002B41F01B8501212B7B85F8D9
:10F31000261043F060032B735AB1288B962802F213
:10F32000A584384B1880022295F827308AF80020EF
:10F330002B83032025F04AFF1DF042F9B6F9243053
:10F34000022B01F35B86294BB6F900211B78FDF7F0
:10F350001DBAB6F9F0310B91062B00F0FB8525F0B4
:10F36000C1FF002841F08C8122F050FCB6F800313A
:10F370000A3B012B40F27086B6F9F031042B00F005
:10F380006B8699F80020194B092A1B783DF40EAAC8
:10F39000B6F90021FDF7FEB9012025F0AFFF0028E6
:10F3A0003EF420A90021032208461EF0DBFEB6F938
:10F3B000F031062B7EF416A90123134A9BF8004076
:10F3C0001370002C7EF413A9074B1B78022B01F05D
:10F3D0006881B6F90031092B40F30A822346FEF713
:10F3E00018B900BFA4540020185400209020002019
:10F3F000CC3D0020B87A01086020002020210020A8
:10F4000029540020A854002046200020C649497AEB
:10F4100003297EF4E4AB002801F0DF86B6F91C3343
:10F420000D2B01F3B1820133A6F81C33BF480B92B8
:10F4300038F008FCB6F91C33BD4A03EB430103EB7B
:10F440008101505C11440B9A18B1BA4881427EF494
:10F45000CDAB002B7EF7CAAB013BA6F81C3389F875
:10F460000080002A3EF4C7AB2B78002B42F0DD81F0
:10F470009BF8003003EB830206EB0212B2F938204E
:10F48000042A7EF4F9ABB6F91C330B9323F0FCF895
:10F490000921A94B04461A788BF800100B9B002A0F
:10F4A00043F0728496F8E21296F8F62296F80A3340
:10F4B00041F0020142F0020243F0020386F8E21238
:10F4C00086F8F62286F80A33002803F00D825022CF
:10F4D0009BF8003002FB0362B2F93820FEF7CCBB88
:10F4E000914B9B79012B14D13CF0D0F838B10A9B99
:10F4F0001B7823B1914B1B78002B43F053809BF872
:10F500000030062B7FF449A9874B9B79012B01F032
:10F5100027859BF80030012B3FF647A9824AD25C31
:10F52000032A40F0E1822A7B013342EA43132B7322
:10F53000DDE283490B78A3F14202182A00F24783E7
:10F54000013BDBB20B707F4A7F491278002001F843
:10F55000123025F0E9FE7D4BB6F900211B78FDF74E
:10F5600015B9B6F9A031052B00F03B83DA1F92B232
:10F57000012A40F23683062B7FF41AAB6A4B83F8DC
:10F580000580FDF768BD724B1A703DF031F99BF8AC
:10F590000030FEF715BB032C7FF40AAB25F0A2FE6A
:10F5A000002842F0288196F8F632B6F9F02143F0AF
:10F5B0000203062A86F8F6329BF800107FF4EEAAC2
:10F5C000B6F9E032012B04BF624A1370FFF7E6BAC6
:10F5D000614CA1F10D0000EB400004EB8000C47A07
:10F5E000152944F00204C47200F011850131CCB237
:10F5F000A4F10D01584801EB410100EB8101C87AEB
:10F600008BF8004040F00100C872FDF7BFB8534BC3
:10F610001B78012B7EF46DABFEF7F9BC5049B6F9AF
:10F6200000210B8801330B80484B1B78FDF7AEB8E7
:10F63000444B45491B78424811F81310434BB6F927
:10F6400000211B780170FDF7A1B84E22384B3949D3
:10F6500001E011F8012F03F8012B424A9A42F8D138
:10F66000FEF767B93C203AF051FF3B889BB2002B74
:10F670007DF483A83C490B785C0701F17A8043F064
:10F680000402354B0A70DA7D0C3342F00202DA7262
:10F69000364A9A42F7D19BF80030092B04D0092250
:10F6A00050236A73324A1380324B40F20542009372
:10F6B000D821002391201CF031FD2B7B43F0600307
:10F6C0002B73FDF75AB8032940F0E5801648C3783C
:10F6D0006BB9B6F900210B2A01F335824FF0020312
:10F6E000C3707FF465AA194B1B78FDF74FB8022B46
:10F6F0007FF45EAAB6F90021092A7FF759AA0A4BBE
:10F7000083F80380114B1B78FDF740B80F4B1B7833
:10F71000042B00F0A3870E2901F0D08101398BF86A
:10F720000010FDF725B800BF18540020602000200D
:10F73000083D0020C8710108A45400200161002088
:10F740005F26002040540020A825002090200020A3
:10F7500026540020462000202021002060BE0020EA
:10F76000CC3D0020153D0020706D00208021002040
:10F7700008510020E0720108C14B5A21009340F269
:10F78000054200230F201CF0C9FC4FF4617003F008
:10F7900077FE0421022089F80080F4F757FD99F8DC
:10F7A0000030002BFBD00123B64A0020137089F8EB
:10F7B000008022F0FDFC4FF41673B34A13809BF8CF
:10F7C0000030FDF799B8B14B1B78002B3FF42DABFF
:10F7D000FEF7B1BB9BF80030AD4A102B127840F217
:10F7E0005D8410238BF8003002232B70FEF7C6BE19
:10F7F000204622F001FC9BF80030FDF70ABFA54B24
:10F800005A78022A7FF4E5ADB6F960300B92002BEE
:10F8100041F00085042025F0D9FC9D4B0B9A93F80C
:10F820005130AA70A6F860309BF80030FDF7F1BEA9
:10F83000984B5B79012B7EF4C6AFB6F9A031082B4B
:10F840007EF4C1AF944BB6F900211978904B1B7828
:10F85000002941F0FD879149914C087821880028C2
:10F8600002F03886B1F5487F82F066861431218037
:10F87000FCF78CBF0220F4F7EDFC00287DF498AD76
:10F88000FDF79ABD874A013B1380814BB6F90021F1
:10F890001B78FCF77BBF06297FF48AA9B6F9F02113
:10F8A0007C4B062A9B7900F0D287022B01F0EB8279
:10F8B0007D4B1B78D80700F1A28406233EE4002B81
:10F8C00041F0B282734A1278032A01F0A186714A8C
:10F8D000D05C012801F08F849BF80030734A1278C5
:10F8E000C2B10A2B16D16B4B9B7A012B3EF6BCABF7
:10F8F000B38C033B012B3EF6B7ABB6F93023B6F918
:10F900002833934202F34384614BB6F900211B78FC
:10F91000FCF73CBF0B2B40F0F081654B1B78002BB4
:10F9200041F0F182634B1B78002B3EF49DAB6248A3
:10F93000574B0178B6F9002102291B783CF626AF17
:10F9400001310170FCF722BF5C4BB3F9003019B1F3
:10F95000B6F95422082A0BD0002B40F0C084B6F828
:10F960009C30574A938000203BF098FFFCF778BD0D
:10F97000B6F9A021042AEFDC002B42F03482B6F85D
:10F980009C304F4A0A339380EDE74E4A1178A1F13B
:10F990004103182B00F2BB834B1CD9B211704A4BA8
:10F9A0004A4A1B78002002F8131025F0BDFC384BA2
:10F9B000B6F900211B78FCF7E9BE9BF80030FEF792
:10F9C00046B93B4B1B78002B40F0AD87394B1B7879
:10F9D000002B3EF4F8AE38482D4B0178B6F90021E3
:10F9E0001B7800293CF4D2AE01390170FCF7CEBE81
:10F9F000012A04BF43F0020385F83030FEF7D2BF7E
:10FA0000294A1178C80700F17384B6F8F03141F043
:10FA10000101023B022B117040F2E98607205021C0
:10FA20009BF800201B4B9B5C02EB820E03EB830CCC
:10FA300073461B0103EB8C03334493F812C06873C5
:10FA40004CF002009874224B198005E4052900F05F
:10FA5000898595F82530002B00F08D81072940F02D
:10FA60008A810C4BDB79022B7EF418AB094B83F8AF
:10FA70000780FEF713BBB6F90021FCF787BE00BF75
:10FA8000E0710108462000200451002094750020F8
:10FA900090200020185400203B54002038540020AF
:10FAA00060260020CC3D0020706D00203C540020DA
:10FAB0003754002035540020365400208226002080
:10FAC000202000205F26002040540020A825002090
:10FAD00008510020002B40F02186C04A1278032AEA
:10FAE00001F01E83BD4AD25C012A00F046879BF8D4
:10FAF0000030BB4A1278002A3EF465AE0A2B7EF431
:10FB000062AEB64B9B7A012B3EF65DAEB38C033BE7
:10FB1000012B3EF658AEB6F93023002A43F3048297
:10FB2000B6F94433002BC4BF03F1FF33A6F84433C6
:10FB3000AC4BC4BF02F1FF32A6F830231B78B6F9F4
:10FB40000021FCF723BEA84A83F003031370A54BE2
:10FB5000B6F900211B78FCF727BE0C2940F255832B
:10FB60000D3BA2485900CA1800EB820250790128C7
:10FB70007FF6AAA8D47A072844F00204D47200F2CF
:10FB80006183042800F05E831379002B41F0C58463
:10FB900001231371FFF798B80122954913460A70A3
:10FBA000FDF7F0BE934A1378062B02D80133DBB27F
:10FBB0001370914A012012F81330904A137025F007
:10FBC000B3FB884BB6F900211B78FCF7DFBDA3F12E
:10FBD0003002082A00F2E7830133884ADBB213704F
:10FBE000B1E47E4A5379002B7FF4C8AC01235371F2
:10FBF000FCF785BE012025F081FB00283DF497AB82
:10FC00000021032208461EF0ADFAB6F9F031062BAA
:10FC10007DF48DAB01237A4A13709BF80030002BE2
:10FC20003DF48AAB012B04BF0223AB70FDF786BB0A
:10FC30006A4B5B7A032B01F038802B78012B01F0A3
:10FC40005180022B04D1674B1B78042B01F04A80B2
:10FC50000A238BF80030FFF760B96A4BB3F9102024
:10FC600050330AB10130C0B2674A9342F6D1B8B1FD
:10FC7000B6F900310B2B01F0B8830D2B41F3A383B0
:10FC8000B6F910203AB9A3F10C0292B2012A04D8B5
:10FC9000B6F960200AB10138C0B2022801F2AD8382
:10FCA00096F80632B6F9F02143F00203062A86F8E8
:10FCB0000632B6F940020ED001280CD1B6F9103048
:10FCC0004BB1B6F9603033B1B6F8B010B6F80031C8
:10FCD0000B4301F0B08500244A4BB3F91020503398
:10FCE00012B1A04242F060800134042CF5D13D4BAA
:10FCF000B6F900211B78FCF749BD0C2B7EF4B4A9A2
:10FD0000424B1B78002B3EF4AFA94148354B01789C
:10FD1000B6F900211B7800293CF438AD0139017097
:10FD2000FCF734BD03239DF82C20A6F81C232B4A96
:10FD3000537222F04DFDFFF7DFB909297EF4BAAF07
:10FD40002649497A03297EF4B5AFB6F90813072985
:10FD50007EF4B0AFB6F9E01200297EF4ABAF1F4AD3
:10FD60005172D25C9400FEF7A5BF1C4A02F80380D2
:10FD70000022FEF768BF0C297EF690A9A1F10D04C0
:10FD80001A4A6000031902EB830393F80BC05A79F7
:10FD90004CF0020C0A2A83F80BC000F2B683013241
:10FDA000D2B2022A5A7141F02D8595F82C308B423F
:10FDB00016BF0C4B95F82D201A7803190B4800EB51
:10FDC0008303901E01281A7101D804225A7199F8F0
:10FDD0000030072B7CF4CCACFEF754BA185400204A
:10FDE0003C5400209020002060BE002020210020F4
:10FDF000DA6C002040540020A82500205F26002057
:10FE0000462000208C210020CC22002034540020E9
:10FE10001C510020C94B9C79012C7EF425A925F0AA
:10FE20004FFA20B1C64B1B78002B42F0A8839BF8F9
:10FE30000030FEF709B9C14A12F803C0BCF1000F47
:10FE40007EF4DFAC03EB8302BE491201885E012819
:10FE50007EF4D7ACB6F940E2B5F906109E45B5F987
:10FE6000042002F06387A24208BFA5F80480A142E3
:10FE7000B54A07D0B54991423EF4C3AC32F9021BF2
:10FE8000A142F7D1911E31F8020C21F80209B048C5
:10FE90008842F8D1EEE7A94B9A79012A7EF436AF71
:10FEA000CDE90B123BF0F2FBDDE90B1238B10A9BF6
:10FEB0001B7823B1A74B1B78002B42F0C3839BF820
:10FEC0000000FEF720BF0B20487195F82C107244FB
:10FED000994201F02C81A049A048097800EB8202E8
:10FEE0001171FFF78FB9954A5279002A40F0FE84CC
:10FEF000B6F9A021002A7EF480AC4FF40061984A44
:10FF0000984822F8021F9042FAD1FEF776BC3BF0E7
:10FF100049FBFEF79FBA03203BF0AEF803203BF00D
:10FF200081F8FEF792BA01210620F4F78FF902203A
:10FF30003AF004FBFEF784BA20238B498B4A0B70FE
:10FF400012788B4901F81230834BB6F900211B78E7
:10FF5000FCF71CBC01232B7021F02EFF7E4BB6F961
:10FF600000211B78FCF712BCB6F90031092B00F315
:10FF7000F384AB78012B41F26383022B7FF42EAA2A
:10FF8000012318468BF8003022F036F89BF8003039
:10FF9000FDF73FBB002900F09683764B1B88052BAD
:10FFA00001F09982322B01F0B487B3F5FA7F01F0AA
:10FFB0003385012B02D96F4A5B08138001236E4AF7
:10FFC0001370FCF79CBC4E226C4B6D4901E011F89C
:10FFD000012F03F8012F6B4A9A42F8D1FDF7B2BC0A
:10FFE000B6F91C330D2B00F363850133A6F81C33DF
:10FFF000FDF7C6BD08231521FFF745B9624B83F80D
:020000040801F1
:1000000000803CF0F5FB9BF80030FDF7A2BD00211D
:100010000D24FFF7EFBA002A3EF474AF013AD2B2D2
:10002000082A8BF8002040F0DC86444B1B7A022B18
:1000300002D1424B83F80880404B9B5C02EB82026A
:1000400003EB8301130103EB810333449A7C42F0F9
:1000500003029A74FCF78CBB1FF074FD3E4BB6F99B
:1000600000211B78FCF792BB484B1A703FF054FDFF
:100070009BF80030092B04D0052250236A73444AB0
:100080001380444BFEF7C2BE6E22012342490A8010
:10009000424A13701FF05CFEFDF745B8042A01F0D8
:1000A000ED800D2B40F05D830E238BF80030FFF7C1
:1000B0009BBB224B597A032901F0D28101EB8102CB
:1000C00006EB820292F8E202234B40F003001B7819
:1000D00082F8E202032900F01C86B6F90823042AFC
:1000E00006D1B6F9F422092AC4BF0922A6F8F422DF
:1000F0002B4A92F8E212143241F0020182F8CE1239
:1001000028499142F5D1B6F90021FCF73FBBA1F196
:100110003103082B00F23E844B1ED9B2124B1970EA
:100120003DE40323054A537222F052FBFEF796BCCE
:1001300008238BF80030FEF7F0BE00BF18540020F3
:10014000335400209C210020005200200452002043
:10015000FC5100200161002090200020202100207F
:10016000C6540020665A00205F260020405400201C
:10017000A8250020B475002095750020BD3D002005
:10018000C8710108CA3D00202654002020760020B6
:1001900008510020C472010812510020807500200F
:1001A0008C210020DC210020DC4A1378002B3CF459
:1001B000A6AB013B1370FCF7A2BBD94AD25CFEF799
:1001C0001FBD002A7FF4D0AE01218BF8002013461A
:1001D000A970FDF71EBAD34A137003F027FFD24B64
:1001E000D24A13F8011F02F8011FD1499942F8D1F0
:1001F00022F0EEFA0123CF4A1370FDF70CB8CE4B74
:100200001B78002B00F0478606235024142004FBA3
:1002100003F4C34AD25C00FB02403044847C022ACF
:1002200044F00204847442F2858600224FEA830C73
:10023000FEF7F9BC022A7EF794AC042B7EF420A9C9
:10024000FEF792BCBD4AC81802EB80000279032A6F
:1002500040F28C83B94A0B4402EB830383F8048099
:10026000FEF732BDB649B6F9F03101EB4202B2F801
:100270005420B449042B0A807EF402A9FEF774BC12
:100280000C2A00F03485022940F0C485042B00F0CC
:10029000C185092A00F22B850132D2B2092A8BF8D6
:1002A000002001F05C81032A00F24A87910088183F
:1002B00006EB001090F84E4044F0020480F84E40E7
:1002C0009748805C0A44120100EB800002EB800238
:1002D0003244917C41F003019174FEF7C8BE012BBA
:1002E0007FF441ABB6F84C30974A1380FFF73BBB25
:1002F0009BF80020954821F00101072A017005D1E3
:100300008749C979032904BF8549CB71844B0820EB
:1003100050219B5CFFF788BB8D489BF8003001782B
:10032000002940F090850122092B027003D0502350
:100330006A73844A1380874B40F205420093D821A8
:10034000002389201BF0EAFE834BB6F900211B78BD
:10035000FCF71CBA01238149B6F900210B707E4BD2
:100360001B78FCF721BA0B9803287EF443AF0120D9
:10037000487104217148724400EB8202117185F8C2
:100380002C3085F82DC09A00FEF7A7BA012024F082
:10039000B5FF00283EF4F2A80322214620461DF0B6
:1003A000E1FEFEF7EBB8A3F120023F2A3FF6CBA80F
:1003B00001A151F822F000BFB904010847F5000877
:1003C00047F5000847F5000847F5000847F500081D
:1003D000FF04010847F50008F5040108EB040108D3
:1003E00047F5000847F5000847F50008E104010853
:1003F00047F5000847F5000847F5000847F50008ED
:1004000047F5000847F5000847F5000847F50008DC
:1004100047F5000847F5000847F50008D70401082C
:1004200047F5000847F5000847F5000847F50008BC
:1004300047F50008B904010847F50008C30401089E
:1004400047F5000847F5000847F5000847F500089C
:1004500047F5000847F5000847F5000847F500088C
:1004600047F5000847F5000847F5000847F500087C
:1004700047F5000847F5000847F5000847F500086C
:1004800047F5000847F5000847F5000847F500085C
:1004900047F5000847F5000847F5000847F500084C
:1004A00047F5000847F5000847F5000847F500083C
:1004B00047F50008CD0401083023294A1370FFF7DF
:1004C00042B82023264A1370FFF73DB82D23244A53
:1004D0001370FFF738B85F23214A1370FFF733B862
:1004E00029231F4A1370FFF72EB828231C4A1370C4
:1004F000FFF729B826231A4A1370FFF724B82522DC
:10050000174913460A70FFF71EB804201A7985F8B8
:100510002C10988085F82D2059E400BFFA26002081
:1005200018540020E33D0020B7360020532000205F
:10053000BF360020A4540020E060002020210020CD
:10054000847101080851002020200020706D0020D7
:10055000327E0020C87201089020002060BE00207A
:100560005F260020C94B5B79012B7DF497ADC84B0A
:100570001B78012B7DF492ADB6F9A031042B41F329
:100580002687072B7DF48AADC24A92F9003013F119
:10059000630FA4BF03F1FF331370BEE1BB4A125DCA
:1005A000002A7DF483ADB3F94022944202F04281E7
:1005B000B5F904209442B84A08BFA5F80480104653
:1005C00030F902CB644509D00246B44890423DF46C
:1005D0006DAD104630F902CB6445F5D19E4632F838
:1005E00002CCAF4B22F802C99342F8D17346EBE735
:1005F000B6F90833022B7EF46EAEB6F9E032012B69
:100600007EF469AEB6F95031002B7EF764AE9F4B95
:100610005B7A032B02F0E582B6F9F422012AC4BF0B
:10062000023A10B2431CA6F8F432C0B237F04EFCC6
:1006300096F8F63243F0020386F8F63224F040FED4
:10064000002841F0C687974BB6F900211B78FCF7CC
:100650009DB8022B7EF482A900F04BBC0D2900F05E
:10066000CF870F297FF45AA80D228F498BF80020DD
:1006700091F8233043F0030381F82330FCF778B876
:10068000012024F03BFE0B9900283EF46DAE0322BE
:1006900008461DF067FDFEF767BE24F0BFFEFCF7BD
:1006A00064BAB6F91030002B40F0C885042024F05D
:1006B0008DFD01227B4BAA7093F8503033829BF85A
:1006C0000030FCF7A6BF794B1B78002B3CF417A930
:1006D000B6F93033002B7CF712A9013B9BB21AB25A
:1006E000022AA6F830237CF70AA9714A12782AB1A7
:1006F00095F82620002A14BF012202229B1AA6F890
:100700003033FCF7FCB80D2900F0A387102901F065
:10071000E68201318BF80010FCF738B8012B7EF42B
:1007200041A85A4A5278032A7FF4DCA961490A7821
:100730001E2A7EF6F8AE023A0A70FEF7F4BEB6F94B
:1007400000210B2A7EF7B5AD5B4A1278002A7EF4B1
:10075000B0AD56480178002918BF13460370FEF764
:1007600010BE0B3B012B9CBF0A238BF80030FFF718
:100770003BB8524923F004024B4B0A70DA7D0C332C
:1007800042F00202DA724E4A9A42F7D19BF80030E8
:10079000092B04D00A2250236A734A4A13804A4B19
:1007A00040F205420093D821002391201BF0B6FCB3
:1007B000FBF7E3BF3AF06AFF00283DF495AA0A9BD5
:1007C0001B78002B3DF490AA404B1B78002B3DF486
:1007D0008BAA3F4A92F90030002BC4BF03F1FF33CC
:1007E00013703BF0E9FB9BF80030FCF785B8B6F9D5
:1007F0000432092B3FF712A9364B1B78002B7FF4EC
:100800000DA903200722502196F87E328BF8002094
:1008100043F0020386F87E321C4B6A73D871294B71
:100820001980FBF79BBF0B9B2B4903EB430203EBA8
:1008300082022A482A4B0A4412F8011B03F8011FBE
:1008400000F8011F27499942F6D1FEF74DBC012B54
:100850007FF42EA802230D488371FFF729B8B6F95B
:10086000A01104293BF7F6AD1F490A320A330A806A
:100870008B80FBF7F2BD01297CF44FAD0A23034ABC
:100880008BF8003082F80A80FEF77BBD18540020F8
:100890002B54002028540020FE5100200452002038
:1008A000FC51002090200020202100209475002081
:1008B000E4500020E735002026540020706D002011
:1008C0008021002008510020687201080161002089
:1008D00030540020E0600020083D0020532000201C
:1008E000B7360020BF36002020200020012A7DF4EA
:1008F00084AFD14A1278012A7DF47FAFB6F9A021E6
:10090000042A41F3F185072A7DF477AFCB4A92F9A7
:100910000030632B01DC0133137023F06FF89BF878
:100920000030FBF7E9BFC648C64B0178B6F9002195
:1009300001291B783BF62AAF01310170FBF726BF76
:10094000C14B05911C461A7003F01EFC05999BF8DB
:1009500000302170FBF7A8BF0D2BD5BF01238BF80A
:1009600000808BF800300023FCF753BE0132D2B276
:10097000042A02717EF4A8A96CE4002024F026FC6D
:100980009BF80030FDF711BFB0490B8801330B8095
:10099000FEF74CBDA1F120023F2A3FF600A801A3BB
:1009A00053F822F0A50A01089FF900089FF90008F2
:1009B0009FF900089FF90008252201081922010863
:1009C0009FF900080D220108012201089FF9000883
:1009D0009FF900089FF900083D2201089FF90008CF
:1009E0009FF90008312201089FF900089FF90008CB
:1009F0009FF900089FF900089FF900089FF9000877
:100A00009FF900089FF900089FF900089FF9000866
:100A10009FF900089FF900089FF900089FF9000856
:100A2000A50A01089FF900089FF900089FF900082E
:100A30009FF900089FF900089FF900089FF9000836
:100A40009FF900089FF900089FF900089FF9000826
:100A50009FF900089FF900089FF900089FF9000816
:100A60009FF900089FF900089FF900089FF9000806
:100A70009FF900089FF900089FF900089FF90008F6
:100A80009FF900089FF900089FF900089FF90008E6
:100A90009FF900089FF900089FF900089FF90008D6
:100AA000A524010841236A4A19461370FEF777BF4F
:100AB000664A138801331380FDF762B810238BF860
:100AC0000030FBF755BE6349C978012901F0348431
:100AD0002B78002B3FF4A2AA013AD2B28BF8002067
:100AE000032A7EF60FAA042A04D103238BF80030D0
:100AF000FEF713BA574B092A995C02EB820301EB0C
:100B000081014FEA031303EB81033344997C41F0E5
:100B1000030199747BF42CAEB6F90833042B05D18C
:100B2000B6F9F432092BC8BFA6F8F4224A4B93F861
:100B3000E222143342F0020283F8CE22474A9A425C
:100B4000F5D1FBF715BE01234249CB703D4B1B7815
:100B5000FBF71CBE42483B4B0178B6F9002108293F
:100B60001B783BF613AE01310170FBF70FBE03EBB0
:100B7000830206EB021292F82610364CE05441F044
:100B8000020382F82630FEF79FB8324B5B79012BC7
:100B90007EF4A1ABB6F9A021082A01F0BF83264B51
:100BA000197801297EF497AB042A3EF794AB2D48BF
:100BB0000378002B41F0F587204B01701B782A4900
:100BC000042A0B7002F0078223F032F8224B93F8CC
:100BD000A221143342F0020283F88E211F4A9A4266
:100BE000F5D1B6F94032042B0CBF002001203AF0B9
:100BF00055FE1C4B1B78022B01F0E887114BB6F910
:100C000000211B78FBF7C2BD03F010FA9BF800101F
:100C1000FCF76EBF1549013B154ADBB212F81320F1
:100C20000B700B4B03201A7024F07EFB054BB6F9BA
:100C300000211B78FBF7AABD2B540020285400206C
:100C40000536002090200020FE260020CC3D00200C
:100C50005F260020185400208C210020DC21002079
:100C60001C51002029540020BC5400204054002076
:100C7000A8250020B6F91C33C54A03EB430103EB5A
:100C80008103C4490B4413F8011B02F8011FC24938
:100C90009142F8D1FDF7C1B8C04A1378002B7BF41C
:100CA0002EAE01231370FBF72ABEB6F9F031062BE6
:100CB00000F06284B6F91C33002B00F35584B84B66
:100CC0001C88002C40F0CC8624F00CFB00283EF45D
:100CD000B4AF0322214620461DF044FA2B78012BA5
:100CE0007EF4AFAF0C238BF80030FEF716B9092263
:100CF000AC498BF80020497A01EB810206EB8202B5
:100D000092F8E202032940F0030082F8E2027FF445
:100D1000E4A9B6F9E022002A7FF4DFA9A24AA34998
:100D2000127811F81220A2490A70FFF7D6B90B9871
:100D300007287FF418AB04224A719A00FDF7CDBD55
:100D40009C4B1B78002B01F082819B4A1278012A70
:100D500001F07581012B41F00B810A990978002976
:100D600001F00681954801780A4341F00181037042
:100D70003BF022F9FEF7DDBAB6F9A031082B7DF47D
:100D800073A98F4BB6F9002119788E4B1B78002977
:100D900041F07C838C498D4C08782188002801F033
:100DA0004383B1F5487F81F0E586232941F2F4863B
:100DB00014392180FBF7EABC854B1B88022B00F01D
:100DC0006585142B00F05085C82B00F0928740F207
:100DD000F13293423FF6F2A87D4A5B001380FFF7A1
:100DE000EDB80A2A7FF47CAE6E4B9B7A022B7FF41F
:100DF00023A96C4B83F80A80FFF71EB9694AD05CBF
:100E000003287EF466AD2A7B013342EA43132B7339
:100E1000FEF762BD0132D2B2092A8BF8002000F041
:100E20009E830846FEF7FDB8012B7DF412A95D4AAA
:100E30005278032A7EF44BAD66490A78A92AE2D893
:100E400002320A70DFE76449092B0A7004D00222DB
:100E500050236A73614A1380614B40F2054200934C
:100E6000D821002389201BF059F9564BB6F90021EF
:100E70001B78FBF78BBC022A00F06686514B83F887
:100E80000080FDF74DBE042A3EF412AD0323454811
:100E90008371FEF70DBD92B2531F012B4FF0060375
:100EA0003DF698AEFDF79EBE032B7EF421AA4D4B76
:100EB00099F800101B784B48012B8FBF002301339A
:100EC000DCB223B2A6F814313E4B092904701B781A
:100ED0003BF46FAC99F800100A297BF45FACFBF788
:100EE00068BC384BB6F900211B78FBF74FBCCDE945
:100EF0000633B6F9A031042B3DF735AD032385F851
:100F00002530FDF730BD38482E4B0178B6F9002169
:100F10001B7800293BF43AAC01390170FBF736BC71
:100F2000324B1B78002B3DF459AC012B01F0508162
:100F3000022B01F07480032B7BF4E1AC2C4BB3F952
:100F40000030022B01F04B81002B01F00D8613F1D4
:100F5000900FFBF6D4AC264A013B1380FBF7CFBCC5
:100F600024F0AEF9002840F0A4829BF80030FDF791
:100F700014BC2049204A0B781070002B40F02D82C1
:100F800001230B700F4BB6F900211B78FBF7FEBB5A
:100F9000B7360020083D0020BF360020FA2600208A
:100FA000CC3D00201854002040540020A8250020EB
:100FB0005F26002001270020F6600020016100204C
:100FC0003B54002090200020385400206026002050
:100FD000B4750020E7350020327E00200851002043
:100FE000CC7201080D360020053600201036002096
:100FF000302000203754002035540020B6F95031FD
:10100000002B00F0EF82C74BB6F900211B78FBF7ED
:10101000BDBBC54A1278012A7DF4EFABC34B1B78E8
:10102000052B7BF66CAC0F2B08BF0923BF4A18BFFA
:1010300003F1FF331370FBF762BC03EB830206EB93
:101040000212B2F92410002901DD01399184092B23
:101050007DF430ACB6F9E022B6F9083322B95A1F54
:1010600092B2012A41F23681042B00F0C686B04BC1
:101070005B7A022B7DF41EAC21F0EEFBFDF71ABC6F
:10108000AB4AD279022A01F03D80032A00F0F187B1
:10109000B6F9F021042A01F0F080062B7DF4D5ABDF
:1010A000A34B9979012901F0CF8001EB810206EB76
:1010B0008202B2F9F0318C46002B41F3B782013B3A
:1010C0009BB218B20329A2F8F00105D1412290FB8E
:1010D000F2F01B1AA6F82C32954B9B79012B00F0ED
:1010E000EB82944B1B78012B40F205839BF8003078
:1010F000052B40F002838E4B5B79032B40F08585F6
:101100008D4B1B78002B00F05A838C4B1B78002BE7
:101110003BF4F5AB3AF07CF89BF80030FBF7ECBB06
:1011200087490A782D2A7EF6FEA9FFF704BB854879
:1011300095F82D1000EB820211719A00FDF7CDBBDE
:10114000042A1DD105227A498BF800204979B6F985
:10115000002101EB810106EB810191F8A20140F031
:10116000030081F8A201FBF711BB0028E8D1082A8F
:101170007DF467AF6E49097A022901D16C49087282
:101180006B4902EB8200895C000101EB810400EBFA
:1011900084003044847C092A44F0030484747DF480
:1011A00066AFFEF797BF5B7A032B00F03086604B8B
:1011B00029785B7A03EB830306EB830393F8E2223F
:1011C00042F0020283F8E22200297DF4DCA8554BAC
:1011D000B6F900211B78FBF7D9BA034684465A4971
:1011E00011F8010F594A02F813000133082BF7D107
:1011F0006246FEF713B923F0E9FF9BF80030FCF7D5
:101200002BBF03287DF41FAD494A82F80580D25CCC
:10121000FDF719BD052023F0D9FFB6F86030414A2B
:10122000A6F8608082F851309BF80030FCF7F1B9E5
:101230003C4BB6F900211B78FBF7A8BA052023F038
:10124000C5FF338A374A348282F850309BF8003029
:10125000FCF7DFB93649C95C01297EF44CA83C4B48
:101260001B78002B3EF447A8022B01F2E982384993
:1012700001330B702B4B1B78FBF788BA0E2B7EF4D7
:10128000B3AA0F238BF80030FEF7AEBA995C02EBDD
:10129000820301EB81011B0103EB81033344987C42
:1012A000297840F002009874002957D10B3A0A2A95
:1012B00098BF8BF800101B48037B002B40F0D982AD
:1012C0000322502301216A73224A01731380B6F965
:1012D00000210378FBF75ABA4FF0000C9CB2631E52
:1012E0009BB21D4903EB430203EB82020A446146B1
:1012F0001548A6F81C330B920B9A10F801EF12F860
:1013000001CBE6450B92CAB201F1010140F03484F1
:101310000829F1D1002B3CF476ADA31EA6F81C33AE
:10132000FCF776BD90200020113600204A200020D6
:1013300018540020F260002029540020407E002034
:10134000E635002020210020B7360020A825002007
:101350001036002008510020083D00200C2A7DF6A0
:1013600012A8012901F0E982022901F0578295F8BB
:101370003530092B8BF8003000F09487B94BB6F963
:1013800000211B78FBF702BAB74B1B78002B3CF40B
:1013900076AE012B01F09082022B00F04086032BE9
:1013A0007BF4ADAAB14AB2F90030D91C00F017871E
:1013B000002B01F0D583BF2B3BF7A1AAAB4A013329
:1013C0001380FBF79CBA0A2B3EF462ACFEF75BBCC1
:1013D0000A228BF80020FDF737BEA54BB6F9002195
:1013E0001870A04B1B78FBF7D1B9B6F91020002A72
:1013F0007EF451AC02287EF653AC4FF0000E9BF801
:1014000000109C4A9C48525C01EB8104240102EBD1
:10141000820204EB820204447046324492F812C005
:101420004CF0020C82F812C0B6F94022814200F161
:10143000010000F0C7810428F8D107238D4A8BF8FA
:10144000003082F80780022386F8423286F856324E
:1014500086F86A32834BB6F900211B78FBF796B900
:10146000864836F0EFFBB6F91C230346002800F04F
:10147000B682431E9A42C0F2AA820E2B00F09187D8
:10148000784BB6F900211B78FBF780B97C4B1B78B1
:10149000012B7CF403AE7B4B1B78122B3BF62FAA5F
:1014A000092B08BF0F23774A18BF01331370FBF7CE
:1014B00026BA754B1A789BF80030002A3DF46DA9C6
:1014C000012A01F0E381022A7BF416AA6F4A82F80E
:1014D0000080FBF711BA02236D4A1380FEF76EBD40
:1014E00047F2D622B6F9C8319342CCBF47F22F5308
:1014F00003F59673A6F8C831B6F9A031032B00F3B3
:10150000D782B6F9B431112B40F3D28211230521D1
:10151000A6F8B4311424FCF79EBE82F80480FDF7CF
:10152000D3BB544BDB79022B01F09880032B7CF466
:10153000D6AD584B1B78022B01F058841C24FCF7C5
:101540008ABE09228BF800201AE62B78002B40F087
:10155000ED82444BB6F900211B78FBF717B90A223C
:101560008BF80020FDF777BD3E4BA6F81C83B6F93B
:1015700000211B78FBF70AB9B6F9E032012B7FF4A2
:1015800099AB454A1370FFF795BB3A4A9279022A04
:101590007FF47EAD3EF0C0FA96F82E32298B43F0F0
:1015A0000203962986F82E324FF0140C4FF05003A8
:1015B0009BF8000001F28D8203FB00F22D4B1B5CB7
:1015C0000CFB03233344B3F91020002A41F3968225
:1015D0003248007810B11E2901F20485013A1A82BE
:1015E00001F08CBAB6F9F031022B00F01C85042B07
:1015F00000F019851B4BB6F900211B78FBF7C6B824
:101600001023274A8BF8003082F80B80FBF7B0B824
:1016100024490A78D62A3FF6F6AB11E42023224962
:10162000B6F900210B708B700B718B710B728B7282
:101630000B738B731D490B700A4B1B78FBF7A6B815
:1016400000208BF8008020F0D7FC9BF80030FBF7DF
:10165000E0BF0F2112488BF8001080F80B80FBF7D9
:1016600095B800BF902000201036002030200020C8
:1016700037540020185400209C21002060200020B6
:10168000113600204A20002033540020006C002036
:10169000B4750020F260002046200020E4500020B5
:1016A00020210020E6350020A82500205F2600200C
:1016B00002DD013BA6F80432CD4B1B783BB1B6F9F5
:1016C0004032042B0CBF002001203AF0E7F839F03B
:1016D000DDFF002801F059819BF80030C54A1278DF
:1016E000012A3FF605AD062B40F08782C24B9B795D
:1016F000012B01F03E839BF80030062B7FF4A7AC52
:10170000BD4B9B79002B7DF4D5A8B6F9F031002BA9
:1017100040F0FB82B74B288B1B78002B00F0EF8248
:1017200085F8270096F852219BF8003042F002021B
:10173000A6F8508186F85221052B7FF488ACB6F9C3
:10174000A021032A3DF7B8A8B6F9B421102A7DF7E5
:10175000B3A81022A6F8B421FDF7AEB85020142289
:1017600000FB01F002FB030201290CF101003244ED
:10177000108240F2C08005297CF41AAD9E4B5B7943
:10178000032B40F095869A4B1B78002B7FF4BDAC61
:10179000FCF724BD984A5279022A7FF479AC974B22
:1017A0001A78002A41F00583B6F9C831B3F5967F5F
:1017B000C6BFA3F59673A6F8C831A6F8C8219BF852
:1017C0000030B9E7B4F900C0BCF1000F3FF433AE0C
:1017D0008A423FF430AEE8882C89A88068890329C2
:1017E000A6F84012EC8028816A8101F00384012070
:1017F0003AF054F827E60021224608461CF0B2FCD5
:10180000FDF7D1BE1879023801283EF6E0AA052A74
:101810007EF4DDAA08225A71FEF7D9BA032276496E
:101820008BF80020CB70FDF7ACBD20F0C5FA25F099
:10183000C3F8FDF71DBE04237149A6F840320A70B3
:101840003AF02CF86F4BB6F900211B78FAF79EBFDF
:10185000012940F0C7866C48017801297AF696AFD5
:1018600001390170FAF792BF3223684A1380FEF7FC
:10187000A5BB0422502363496A73654A81F80C8032
:101880001380B6F900210B78FAF780BF05235F4A71
:101890001380FEF793BB052023F098FC9BF8001003
:1018A00001293BD1544B5B7833B9B6F96030002B3A
:1018B00000F0AD85042B2CD004244F4B62185B5CE8
:1018C00012014FEA830E0EEB030002EB800232445A
:1018D000B2F910C0B2F90820184662450B917CF7A6
:1018E00049AC5020142200FB01F002FB03020CF172
:1018F000010032441082022B7CF452AC2B7B01316C
:1019000043EA41132B733AF041FE9BF80010FCF7B9
:1019100044BC052023F05AFC9BF80010B6F9F021D6
:10192000042A40F00B81062940F00B81324B9B7951
:10193000032B01F0C180304B9979012900F0AF876A
:1019400001EB810206EB8202B2F9F031B2F9E82133
:1019500008469A4240F30E85142000FB01600133D3
:101960009BB21AB20329A0F8F0217CF421AC4121EA
:1019700092FBF1F21344A6F82C32FCF719BC39F0B3
:1019800015FF244B1880B6F9F031012B7CF43FACE5
:10199000184B1B78002B01F0888095F827302B839B
:1019A000FCF735BC06297CF43CAC134B9B79012B2E
:1019B0007CF41DAC2B8B962B7CF64AACB6F8180247
:1019C00039F0AAFE9BF800102883FCF70EBCA6F89D
:1019D0001C330C4BB6F900211B78FAF7D7BE002A4E
:1019E000F5DB084BB6F900211B78FAF7CFBE00BF34
:1019F00029540020F2600020185400202A540020AE
:101A0000BA54002090200020A4250020B4750020A6
:101A100008510020A8540020C823CB4A1380FEF7A9
:101A2000CDBACA49C978012900F09387C84B2978F3
:101A30001B7800297EF427ACFDF7ECBA8C00621805
:101A400006EB0212B2F92430B2F91C209A427CF75C
:101A500002AC502202FB016201339384FCF7FBBB12
:101A60000D2C93BFBB4B0E3C1C80A3F80080B84BE1
:101A7000B6F900211B78FAF789BE012B3DF450A876
:101A80000423B34A1370FDF74BB8032B7DF43FA832
:101A90009BF800300E2B02D10F238BF8003004226C
:101AA000B6F9F031AA49062B0A707DF439A8E7E7A8
:101AB00005211424FCF7CFBB05297CF410ABA34B04
:101AC0005C79022C00F0558604EB840306EB83035B
